F 201023876ZPTE01 0120150821112134FTP.undefined                                                                                                       
F0201023876ZPTE01 01201508010000000000000000000                                                                                                       
F9201023876ZPTE01 010000005000000000000000                                                                                                            
